{
  "contractName": "PatientsMan",
  "abi": [
    {
      "constant": true,
      "inputs": [
        {
          "name": "",
          "type": "uint256"
        }
      ],
      "name": "Patients",
      "outputs": [
        {
          "name": "id",
          "type": "uint256"
        },
        {
          "name": "patientName",
          "type": "string"
        },
        {
          "name": "patientEmail",
          "type": "string"
        },
        {
          "name": "patientDiagnostic",
          "type": "string"
        },
        {
          "name": "completed",
          "type": "bool"
        }
      ],
      "payable": false,
      "stateMutability": "view",
      "type": "function",
      "signature": "0xa1982835"
    },
    {
      "constant": true,
      "inputs": [],
      "name": "patientsCount",
      "outputs": [
        {
          "name": "",
          "type": "uint256"
        }
      ],
      "payable": false,
      "stateMutability": "view",
      "type": "function",
      "signature": "0xb6b1289d"
    },
    {
      "inputs": [],
      "payable": false,
      "stateMutability": "nonpayable",
      "type": "constructor",
      "signature": "constructor"
    },
    {
      "anonymous": false,
      "inputs": [
        {
          "indexed": false,
          "name": "id",
          "type": "uint256"
        },
        {
          "indexed": false,
          "name": "patientName",
          "type": "string"
        },
        {
          "indexed": false,
          "name": "patientEmail",
          "type": "string"
        },
        {
          "indexed": false,
          "name": "patientDiagnostic",
          "type": "string"
        },
        {
          "indexed": false,
          "name": "completed",
          "type": "bool"
        }
      ],
      "name": "PatientsAdded",
      "type": "event",
      "signature": "0x94d07ce7bcdc7229602c5836d292bbb501173a5d7f3ecab1089d6ad676c6efa6"
    },
    {
      "anonymous": false,
      "inputs": [
        {
          "indexed": false,
          "name": "id",
          "type": "uint256"
        },
        {
          "indexed": false,
          "name": "completed",
          "type": "bool"
        }
      ],
      "name": "PatientCompleted",
      "type": "event",
      "signature": "0x493bffeb0c491490891a2685799983de6327ceafcca4cfa80ac3bafa8c9b726e"
    },
    {
      "anonymous": false,
      "inputs": [
        {
          "indexed": false,
          "name": "id",
          "type": "uint256"
        }
      ],
      "name": "PatientDeleted",
      "type": "event",
      "signature": "0x411e6cb7f8076d33b96af4eacb36fb6242cf37a51744cf7461dd82288219ec60"
    },
    {
      "constant": false,
      "inputs": [
        {
          "name": "_patientName",
          "type": "string"
        },
        {
          "name": "_patientEmail",
          "type": "string"
        },
        {
          "name": "_patientDiagnostic",
          "type": "string"
        }
      ],
      "name": "addPatient",
      "outputs": [],
      "payable": false,
      "stateMutability": "nonpayable",
      "type": "function",
      "signature": "0x0c380fc9"
    },
    {
      "constant": false,
      "inputs": [
        {
          "name": "_id",
          "type": "uint256"
        }
      ],
      "name": "toggleCompleted",
      "outputs": [],
      "payable": false,
      "stateMutability": "nonpayable",
      "type": "function",
      "signature": "0x455f5024"
    },
    {
      "constant": false,
      "inputs": [
        {
          "name": "_id",
          "type": "uint256"
        }
      ],
      "name": "deletePatient",
      "outputs": [],
      "payable": false,
      "stateMutability": "nonpayable",
      "type": "function",
      "signature": "0x67e57482"
    }
  ],
  "bytecode": "0x6080604052600080553480156200001557600080fd5b50620000d16040805190810160405280601081526020017f616d696e65616264656c6d6f756d656e000000000000000000000000000000008152506040805190810160405280600f81526020017f616d696e6540676d61696c2e636f6d00000000000000000000000000000000008152506040805190810160405280600881526020017f636f7669642d313900000000000000000000000000000000000000000000000081525062000308640100000000026401000000009004565b6200018c6040805190810160405280600481526020017f616e6173000000000000000000000000000000000000000000000000000000008152506040805190810160405280600e81526020017f616e617340676d61696c2e636f6d0000000000000000000000000000000000008152506040805190810160405280600781526020017f6f6d6963726f6e0000000000000000000000000000000000000000000000000081525062000308640100000000026401000000009004565b620002476040805190810160405280600581526020017f61686d65640000000000000000000000000000000000000000000000000000008152506040805190810160405280600f81526020017f61686d656440676d61696c2e636f6d00000000000000000000000000000000008152506040805190810160405280600681526020017f477269707065000000000000000000000000000000000000000000000000000081525062000308640100000000026401000000009004565b620003026040805190810160405280600881526020017f6d6f68616d6d65640000000000000000000000000000000000000000000000008152506040805190810160405280601281526020017f6d6f68616d6d656440676d61696c2e636f6d00000000000000000000000000008152506040805190810160405280600b81526020017f6920646f6e74206b6f6e7700000000000000000000000000000000000000000081525062000308640100000000026401000000009004565b620005f6565b6000805460019081018083556040805160a081018252828152602080820189815282840189905260608301889052608083018790529386528481529190942084518155915180519293620003659390850192919091019062000551565b50604082015180516200038391600284019160209091019062000551565b5060608201518051620003a191600384019160209091019062000551565b5060808201518160040160006101000a81548160ff0219169083151502179055509050507f94d07ce7bcdc7229602c5836d292bbb501173a5d7f3ecab1089d6ad676c6efa660005484848460006040518086815260200180602001806020018060200185151515158152602001848103845288818151815260200191508051906020019080838360005b83811015620004455781810151838201526020016200042b565b50505050905090810190601f168015620004735780820380516001836020036101000a031916815260200191505b50848103835287518152875160209182019189019080838360005b83811015620004a85781810151838201526020016200048e565b50505050905090810190601f168015620004d65780820380516001836020036101000a031916815260200191505b50848103825286518152865160209182019188019080838360005b838110156200050b578181015183820152602001620004f1565b50505050905090810190601f168015620005395780820380516001836020036101000a031916815260200191505b509850505050505050505060405180910390a1505050565b828054600181600116156101000203166002900490600052602060002090601f016020900481019282601f106200059457805160ff1916838001178555620005c4565b82800160010185558215620005c4579182015b82811115620005c4578251825591602001919060010190620005a7565b50620005d2929150620005d6565b5090565b620005f391905b80821115620005d25760008155600101620005dd565b90565b610ec380620006066000396000f3fe60806040526004361061006c5763ffffffff7c01000000000000000000000000000000000000000000000000000000006000350416630c380fc98114610071578063455f50241461023457806367e574821461025e578063a198283514610288578063b6b1289d14610408575b600080fd5b34801561007d57600080fd5b506102326004803603606081101561009457600080fd5b8101906020810181356401000000008111156100af57600080fd5b8201836020820111156100c157600080fd5b803590602001918460018302840111640100000000831117156100e357600080fd5b91908080601f016020809104026020016040519081016040528093929190818152602001838380828437600092019190915250929594936020810193503591505064010000000081111561013657600080fd5b82018360208201111561014857600080fd5b8035906020019184600183028401116401000000008311171561016a57600080fd5b91908080601f01602080910402602001604051908101604052809392919081815260200183838082843760009201919091525092959493602081019350359150506401000000008111156101bd57600080fd5b8201836020820111156101cf57600080fd5b803590602001918460018302840111640100000000831117156101f157600080fd5b91908080601f01602080910402602001604051908101604052809392919081815260200183838082843760009201919091525092955061042f945050505050565b005b34801561024057600080fd5b506102326004803603602081101561025757600080fd5b5035610669565b34801561026a57600080fd5b506102326004803603602081101561028157600080fd5b5035610928565b34801561029457600080fd5b506102b2600480360360208110156102ab57600080fd5b5035610bac565b6040518086815260200180602001806020018060200185151515158152602001848103845288818151815260200191508051906020019080838360005b838110156103075781810151838201526020016102ef565b50505050905090810190601f1680156103345780820380516001836020036101000a031916815260200191505b50848103835287518152875160209182019189019080838360005b8381101561036757818101518382015260200161034f565b50505050905090810190601f1680156103945780820380516001836020036101000a031916815260200191505b50848103825286518152865160209182019188019080838360005b838110156103c75781810151838201526020016103af565b50505050905090810190601f1680156103f45780820380516001836020036101000a031916815260200191505b509850505050505050505060405180910390f35b34801561041457600080fd5b5061041d610d7d565b60408051918252519081900360200190f35b6000805460019081018083556040805160a08101825282815260208082018981528284018990526060830188905260808301879052938652848152919094208451815591518051929361048a93908501929190910190610d83565b50604082015180516104a6916002840191602090910190610d83565b50606082015180516104c2916003840191602090910190610d83565b5060808201518160040160006101000a81548160ff0219169083151502179055509050507f94d07ce7bcdc7229602c5836d292bbb501173a5d7f3ecab1089d6ad676c6efa660005484848460006040518086815260200180602001806020018060200185151515158152602001848103845288818151815260200191508051906020019080838360005b8381101561056457818101518382015260200161054c565b50505050905090810190601f1680156105915780820380516001836020036101000a031916815260200191505b50848103835287518152875160209182019189019080838360005b838110156105c45781810151838201526020016105ac565b50505050905090810190601f1680156105f15780820380516001836020036101000a031916815260200191505b50848103825286518152865160209182019188019080838360005b8381101561062457818101518382015260200161060c565b50505050905090810190601f1680156106515780820380516001836020036101000a031916815260200191505b509850505050505050505060405180910390a1505050565b610671610e01565b600082815260016020818152604092839020835160a0810185528154815281840180548651600296821615610100026000190190911695909504601f8101859004850286018501909652858552909491938584019390929083018282801561071a5780601f106106ef5761010080835404028352916020019161071a565b820191906000526020600020905b8154815290600101906020018083116106fd57829003601f168201915b5050509183525050600282810180546040805160206001841615610100026000190190931694909404601f810183900483028501830190915280845293810193908301828280156107ac5780601f10610781576101008083540402835291602001916107ac565b820191906000526020600020905b81548152906001019060200180831161078f57829003601f168201915b505050918352505060038201805460408051602060026001851615610100026000190190941693909304601f81018490048402820184019092528181529382019392918301828280156108405780601f1061081557610100808354040283529160200191610840565b820191906000526020600020905b81548152906001019060200180831161082357829003601f168201915b50505091835250506004919091015460ff161515602091820152608082018051159052600084815260018083526040909120835181558383015180519495508594919361089293850192910190610d83565b50604082015180516108ae916002840191602090910190610d83565b50606082015180516108ca916003840191602090910190610d83565b50608091820151600491909101805460ff191691151591909117905581015160408051848152911515602083015280517f493bffeb0c491490891a2685799983de6327ceafcca4cfa80ac3bafa8c9b726e9281900390910190a15050565b610930610e01565b600082815260016020818152604092839020835160a0810185528154815281840180548651600296821615610100026000190190911695909504601f810185900485028601850190965285855290949193858401939092908301828280156109d95780601f106109ae576101008083540402835291602001916109d9565b820191906000526020600020905b8154815290600101906020018083116109bc57829003601f168201915b5050509183525050600282810180546040805160206001841615610100026000190190931694909404601f81018390048302850183019091528084529381019390830182828015610a6b5780601f10610a4057610100808354040283529160200191610a6b565b820191906000526020600020905b815481529060010190602001808311610a4e57829003601f168201915b505050918352505060038201805460408051602060026001851615610100026000190190941693909304601f8101849004840282018401909252818152938201939291830182828015610aff5780601f10610ad457610100808354040283529160200191610aff565b820191906000526020600020905b815481529060010190602001808311610ae257829003601f168201915b50505091835250506004919091015460ff1615156020909101526080810151909150151560011415610ba857600082815260016020819052604082208281559190610b4c90830182610e33565b610b5a600283016000610e33565b610b68600383016000610e33565b50600401805460ff191690556040805183815290517f411e6cb7f8076d33b96af4eacb36fb6242cf37a51744cf7461dd82288219ec609181900360200190a15b5050565b600160208181526000928352604092839020805481840180548651600296821615610100026000190190911695909504601f81018590048502860185019096528585529094919392909190830182828015610c485780601f10610c1d57610100808354040283529160200191610c48565b820191906000526020600020905b815481529060010190602001808311610c2b57829003601f168201915b50505060028085018054604080516020601f6000196101006001871615020190941695909504928301859004850281018501909152818152959695945090925090830182828015610cda5780601f10610caf57610100808354040283529160200191610cda565b820191906000526020600020905b815481529060010190602001808311610cbd57829003601f168201915b5050505060038301805460408051602060026001851615610100026000190190941693909304601f8101849004840282018401909252818152949594935090830182828015610d6a5780601f10610d3f57610100808354040283529160200191610d6a565b820191906000526020600020905b815481529060010190602001808311610d4d57829003601f168201915b5050506004909301549192505060ff1685565b60005481565b828054600181600116156101000203166002900490600052602060002090601f016020900481019282601f10610dc457805160ff1916838001178555610df1565b82800160010185558215610df1579182015b82811115610df1578251825591602001919060010190610dd6565b50610dfd929150610e7a565b5090565b60a060405190810160405280600081526020016060815260200160608152602001606081526020016000151581525090565b50805460018160011615610100020316600290046000825580601f10610e595750610e77565b601f016020900490600052602060002090810190610e779190610e7a565b50565b610e9491905b80821115610dfd5760008155600101610e80565b9056fea165627a7a7230582032a6798c469a042618b5cec1807e44bbca5df1c586e8b5913367e89b7e0dfcd60029",
  "source": "pragma solidity >=0.4.22 <0.9.0;\n\n\ncontract PatientsMan {\n    uint public  patientsCount=0;\n\n    struct Patient {\n        uint id;\n        string patientName;\n        string patientEmail;\n        string patientDiagnostic;\n        bool completed;\n\n    }\n\n    //we use event to broadcast an event that happend in our smart contract\n    event PatientsAdded( \n        uint id,\n        string patientName,\n        string patientEmail,\n        string patientDiagnostic,\n        bool completed\n\n    );\n    event PatientCompleted(\n    uint id,\n    bool completed\n  );\n  event PatientDeleted(\n      uint id\n  );\n\n    constructor() public {\n        addPatient('amineabdelmoumen','amine@gmail.com','covid-19');\n        addPatient('anas','anas@gmail.com','omicron');\n        addPatient('ahmed','ahmed@gmail.com','Grippe');\n        addPatient('mohammed','mohammed@gmail.com','i dont konw');\n\n        \n    }\n    mapping(uint => Patient) public  Patients;\n     \n\n     function addPatient(string memory _patientName,string memory _patientEmail,string memory _patientDiagnostic) public{\n        patientsCount++;\n      \n        Patients[patientsCount]=Patient(patientsCount,_patientName,_patientEmail, _patientDiagnostic,false);\n        emit PatientsAdded(patientsCount,_patientName,_patientEmail, _patientDiagnostic,false);\n\n     }\n    \n\n  function toggleCompleted(uint _id) public {\n    Patient memory _patient = Patients[_id];\n    _patient.completed = !_patient.completed;\n    Patients[_id] = _patient;\n    emit PatientCompleted(_id, _patient.completed);\n  }\n\n  function deletePatient(uint _id) public {\n      Patient memory _patient=Patients[_id];\n      if (_patient.completed==true){\n          delete Patients[_id];\n          emit PatientDeleted(_id);\n      }     \n  }\n\n}",
  "sourcePath": "/home/amine/todolist-dapp/contracts/PatientsMan.sol",
  "compiler": {
    "name": "solc",
    "version": "0.5.0+commit.1d4f565a.Emscripten.clang"
  },
  "schemaVersion": "3.0.1",
  "updatedAt": "2022-01-18T09:51:39.932Z",
  "devdoc": {
    "methods": {}
  },
  "userdoc": {
    "methods": {}
  }
}